{
  "_format": "hh-sol-artifact-1",
  "contractName": "MyToken",
  "sourceName": "contracts/MyToken.sol",
  "abi": [
    {
      "inputs": [
        {
          "internalType": "string",
          "name": "_name",
          "type": "string"
        },
        {
          "internalType": "string",
          "name": "_symbol",
          "type": "string"
        },
        {
          "internalType": "uint8",
          "name": "_decimals",
          "type": "uint8"
        },
        {
          "internalType": "uint256",
          "name": "_amount",
          "type": "uint256"
        }
      ],
      "stateMutability": "nonpayable",
      "type": "constructor"
    },
    {
      "anonymous": false,
      "inputs": [
        {
          "indexed": true,
          "internalType": "address",
          "name": "spender",
          "type": "address"
        },
        {
          "indexed": false,
          "internalType": "uint256",
          "name": "amount",
          "type": "uint256"
        }
      ],
      "name": "Approval",
      "type": "event"
    },
    {
      "anonymous": false,
      "inputs": [
        {
          "indexed": true,
          "internalType": "address",
          "name": "from",
          "type": "address"
        },
        {
          "indexed": true,
          "internalType": "address",
          "name": "to",
          "type": "address"
        },
        {
          "indexed": false,
          "internalType": "uint256",
          "name": "value",
          "type": "uint256"
        }
      ],
      "name": "Transfer",
      "type": "event"
    },
    {
      "inputs": [
        {
          "internalType": "address",
          "name": "spender",
          "type": "address"
        },
        {
          "internalType": "uint256",
          "name": "amount",
          "type": "uint256"
        }
      ],
      "name": "approve",
      "outputs": [],
      "stateMutability": "nonpayable",
      "type": "function"
    },
    {
      "inputs": [
        {
          "internalType": "address",
          "name": "",
          "type": "address"
        }
      ],
      "name": "balanceOf",
      "outputs": [
        {
          "internalType": "uint256",
          "name": "",
          "type": "uint256"
        }
      ],
      "stateMutability": "view",
      "type": "function"
    },
    {
      "inputs": [],
      "name": "decimals",
      "outputs": [
        {
          "internalType": "uint8",
          "name": "",
          "type": "uint8"
        }
      ],
      "stateMutability": "view",
      "type": "function"
    },
    {
      "inputs": [
        {
          "internalType": "uint256",
          "name": "amount",
          "type": "uint256"
        }
      ],
      "name": "faucet",
      "outputs": [],
      "stateMutability": "nonpayable",
      "type": "function"
    },
    {
      "inputs": [],
      "name": "manager",
      "outputs": [
        {
          "internalType": "address",
          "name": "",
          "type": "address"
        }
      ],
      "stateMutability": "view",
      "type": "function"
    },
    {
      "inputs": [
        {
          "internalType": "uint256",
          "name": "amount",
          "type": "uint256"
        },
        {
          "internalType": "address",
          "name": "to",
          "type": "address"
        }
      ],
      "name": "mint",
      "outputs": [],
      "stateMutability": "nonpayable",
      "type": "function"
    },
    {
      "inputs": [],
      "name": "name",
      "outputs": [
        {
          "internalType": "string",
          "name": "",
          "type": "string"
        }
      ],
      "stateMutability": "view",
      "type": "function"
    },
    {
      "inputs": [],
      "name": "owner",
      "outputs": [
        {
          "internalType": "address",
          "name": "",
          "type": "address"
        }
      ],
      "stateMutability": "view",
      "type": "function"
    },
    {
      "inputs": [
        {
          "internalType": "address",
          "name": "_manager",
          "type": "address"
        }
      ],
      "name": "setManager",
      "outputs": [],
      "stateMutability": "nonpayable",
      "type": "function"
    },
    {
      "inputs": [],
      "name": "symbol",
      "outputs": [
        {
          "internalType": "string",
          "name": "",
          "type": "string"
        }
      ],
      "stateMutability": "view",
      "type": "function"
    },
    {
      "inputs": [],
      "name": "totalSupply",
      "outputs": [
        {
          "internalType": "uint256",
          "name": "",
          "type": "uint256"
        }
      ],
      "stateMutability": "view",
      "type": "function"
    },
    {
      "inputs": [
        {
          "internalType": "uint256",
          "name": "amount",
          "type": "uint256"
        },
        {
          "internalType": "address",
          "name": "to",
          "type": "address"
        }
      ],
      "name": "transfer",
      "outputs": [],
      "stateMutability": "nonpayable",
      "type": "function"
    },
    {
      "inputs": [
        {
          "internalType": "address",
          "name": "from",
          "type": "address"
        },
        {
          "internalType": "address",
          "name": "to",
          "type": "address"
        },
        {
          "internalType": "uint256",
          "name": "amount",
          "type": "uint256"
        }
      ],
      "name": "transferFrom",
      "outputs": [],
      "stateMutability": "nonpayable",
      "type": "function"
    }
  ],
  "bytecode": "0x608060405234801561001057600080fd5b50604051611cd6380380611cd683398181016040528101906100329190610411565b3333816000806101000a81548173ffffffffffffffffffffffffffffffffffffffff021916908373ffffffffffffffffffffffffffffffffffffffff16021790555080600160006101000a81548173ffffffffffffffffffffffffffffffffffffffff021916908373ffffffffffffffffffffffffffffffffffffffff160217905550505083600290816100c691906106c7565b5082600390816100d691906106c7565b5081600460006101000a81548160ff021916908360ff16021790555061012b600460009054906101000a900460ff1660ff16600a61011491906108fb565b8261011f9190610946565b3361013460201b60201c565b505050506109e6565b81600560008282546101469190610988565b9250508190555081600660008373ffffffffffffffffffffffffffffffffffffffff1673ffffffffffffffffffffffffffffffffffffffff168152602001908152602001600020600082825461019c9190610988565b9250508190555060008054906101000a900473ffffffffffffffffffffffffffffffffffffffff1673ffffffffffffffffffffffffffffffffffffffff16600073ffffffffffffffffffffffffffffffffffffffff167fddf252ad1be2c89b69c2b068fc378daa952ba7f163c4a11628f55a4df523b3ef8460405161022191906109cb565b60405180910390a35050565b6000604051905090565b600080fd5b600080fd5b600080fd5b600080fd5b6000601f19601f8301169050919050565b7f4e487b7100000000000000000000000000000000000000000000000000000000600052604160045260246000fd5b6102948261024b565b810181811067ffffffffffffffff821117156102b3576102b261025c565b5b80604052505050565b60006102c661022d565b90506102d2828261028b565b919050565b600067ffffffffffffffff8211156102f2576102f161025c565b5b6102fb8261024b565b9050602081019050919050565b60005b8381101561032657808201518184015260208101905061030b565b60008484015250505050565b6000610345610340846102d7565b6102bc565b90508281526020810184848401111561036157610360610246565b5b61036c848285610308565b509392505050565b600082601f83011261038957610388610241565b5b8151610399848260208601610332565b91505092915050565b600060ff82169050919050565b6103b8816103a2565b81146103c357600080fd5b50565b6000815190506103d5816103af565b92915050565b6000819050919050565b6103ee816103db565b81146103f957600080fd5b50565b60008151905061040b816103e5565b92915050565b6000806000806080858703121561042b5761042a610237565b5b600085015167ffffffffffffffff8111156104495761044861023c565b5b61045587828801610374565b945050602085015167ffffffffffffffff8111156104765761047561023c565b5b61048287828801610374565b9350506040610493878288016103c6565b92505060606104a4878288016103fc565b91505092959194509250565b600081519050919050565b7f4e487b7100000000000000000000000000000000000000000000000000000000600052602260045260246000fd5b6000600282049050600182168061050257607f821691505b602082108103610515576105146104bb565b5b50919050565b60008190508160005260206000209050919050565b60006020601f8301049050919050565b600082821b905092915050565b60006008830261057d7fffffffffffffffffffffffffffffffffffffffffffffffffffffffffffffffff82610540565b6105878683610540565b95508019841693508086168417925050509392505050565b6000819050919050565b60006105c46105bf6105ba846103db565b61059f565b6103db565b9050919050565b6000819050919050565b6105de836105a9565b6105f26105ea826105cb565b84845461054d565b825550505050565b600090565b6106076105fa565b6106128184846105d5565b505050565b5b818110156106365761062b6000826105ff565b600181019050610618565b5050565b601f82111561067b5761064c8161051b565b61065584610530565b81016020851015610664578190505b61067861067085610530565b830182610617565b50505b505050565b600082821c905092915050565b600061069e60001984600802610680565b1980831691505092915050565b60006106b7838361068d565b9150826002028217905092915050565b6106d0826104b0565b67ffffffffffffffff8111156106e9576106e861025c565b5b6106f382546104ea565b6106fe82828561063a565b600060209050601f831160018114610731576000841561071f578287015190505b61072985826106ab565b865550610791565b601f19841661073f8661051b565b60005b8281101561076757848901518255600182019150602085019450602081019050610742565b868310156107845784890151610780601f89168261068d565b8355505b6001600288020188555050505b505050505050565b7f4e487b7100000000000000000000000000000000000000000000000000000000600052601160045260246000fd5b60008160011c9050919050565b6000808291508390505b600185111561081f578086048111156107fb576107fa610799565b5b600185161561080a5780820291505b8081029050610818856107c8565b94506107df565b94509492505050565b60008261083857600190506108f4565b8161084657600090506108f4565b816001811461085c576002811461086657610895565b60019150506108f4565b60ff84111561087857610877610799565b5b8360020a91508482111561088f5761088e610799565b5b506108f4565b5060208310610133831016604e8410600b84101617156108ca5782820a9050838111156108c5576108c4610799565b5b6108f4565b6108d784848460016107d5565b925090508184048111156108ee576108ed610799565b5b81810290505b9392505050565b6000610906826103db565b9150610911836103db565b925061093e7fffffffffffffffffffffffffffffffffffffffffffffffffffffffffffffffff8484610828565b905092915050565b6000610951826103db565b915061095c836103db565b925082820261096a816103db565b9150828204841483151761098157610980610799565b5b5092915050565b6000610993826103db565b915061099e836103db565b92508282019050808211156109b6576109b5610799565b5b92915050565b6109c5816103db565b82525050565b60006020820190506109e060008301846109bc565b92915050565b6112e1806109f56000396000f3fe608060405234801561001057600080fd5b50600436106100cf5760003560e01c8063579158971161008c57806394bf804d1161006657806394bf804d146101ee57806395d89b411461020a578063b7760c8f14610228578063d0ebdbe714610244576100cf565b8063579158971461018457806370a08231146101a05780638da5cb5b146101d0576100cf565b806306fdde03146100d4578063095ea7b3146100f257806318160ddd1461010e57806323b872dd1461012c578063313ce56714610148578063481c6a7514610166575b600080fd5b6100dc610260565b6040516100e99190610cd9565b60405180910390f35b61010c60048036038101906101079190610d94565b6102ee565b005b610116610443565b6040516101239190610de3565b60405180910390f35b61014660048036038101906101419190610dfe565b610449565b005b610150610739565b60405161015d9190610e6d565b60405180910390f35b61016e61074c565b60405161017b9190610e97565b60405180910390f35b61019e60048036038101906101999190610eb2565b610772565b005b6101ba60048036038101906101b59190610edf565b61077f565b6040516101c79190610de3565b60405180910390f35b6101d8610797565b6040516101e59190610e97565b60405180910390f35b61020860048036038101906102039190610f0c565b6107bb565b005b610212610859565b60405161021f9190610cd9565b60405180910390f35b610242600480360381019061023d9190610f0c565b6108e7565b005b61025e60048036038101906102599190610edf565b610a7e565b005b6002805461026d90610f7b565b80601f016020809104026020016040519081016040528092919081815260200182805461029990610f7b565b80156102e65780601f106102bb576101008083540402835291602001916102e6565b820191906000526020600020905b8154815290600101906020018083116102c957829003601f168201915b505050505081565b80600660003373ffffffffffffffffffffffffffffffffffffffff1673ffffffffffffffffffffffffffffffffffffffff168152602001908152602001600020541015610370576040517f08c379a00000000000000000000000000000000000000000000000000000000081526004016103679061101e565b60405180910390fd5b80600760003373ffffffffffffffffffffffffffffffffffffffff1673ffffffffffffffffffffffffffffffffffffffff16815260200190815260200160002060008473ffffffffffffffffffffffffffffffffffffffff1673ffffffffffffffffffffffffffffffffffffffff168152602001908152602001600020819055508173ffffffffffffffffffffffffffffffffffffffff167f1e4109814b4fb1210f81ef6540a9bf7e5834ff79536859d16d6398f0e417c44f826040516104379190610de3565b60405180910390a25050565b60055481565b600033905081600760008673ffffffffffffffffffffffffffffffffffffffff1673ffffffffffffffffffffffffffffffffffffffff16815260200190815260200160002060008373ffffffffffffffffffffffffffffffffffffffff1673ffffffffffffffffffffffffffffffffffffffff16815260200190815260200160002054101561050d576040517f08c379a00000000000000000000000000000000000000000000000000000000081526004016105049061108a565b60405180910390fd5b81600660008673ffffffffffffffffffffffffffffffffffffffff1673ffffffffffffffffffffffffffffffffffffffff16815260200190815260200160002054101561058f576040517f08c379a0000000000000000000000000000000000000000000000000000000008152600401610586906110f6565b60405180910390fd5b81600760008673ffffffffffffffffffffffffffffffffffffffff1673ffffffffffffffffffffffffffffffffffffffff16815260200190815260200160002060008373ffffffffffffffffffffffffffffffffffffffff1673ffffffffffffffffffffffffffffffffffffffff168152602001908152602001600020600082825461061b9190611145565b9250508190555081600660008673ffffffffffffffffffffffffffffffffffffffff1673ffffffffffffffffffffffffffffffffffffffff16815260200190815260200160002060008282546106719190611145565b9250508190555081600660008573ffffffffffffffffffffffffffffffffffffffff1673ffffffffffffffffffffffffffffffffffffffff16815260200190815260200160002060008282546106c79190611179565b925050819055508273ffffffffffffffffffffffffffffffffffffffff168473ffffffffffffffffffffffffffffffffffffffff167fddf252ad1be2c89b69c2b068fc378daa952ba7f163c4a11628f55a4df523b3ef8460405161072b9190610de3565b60405180910390a350505050565b600460009054906101000a900460ff1681565b600160009054906101000a900473ffffffffffffffffffffffffffffffffffffffff1681565b61077c8133610b50565b50565b60066020528060005260406000206000915090505481565b60008054906101000a900473ffffffffffffffffffffffffffffffffffffffff1681565b600160009054906101000a900473ffffffffffffffffffffffffffffffffffffffff1673ffffffffffffffffffffffffffffffffffffffff163373ffffffffffffffffffffffffffffffffffffffff161461084b576040517f08c379a00000000000000000000000000000000000000000000000000000000081526004016108429061121f565b60405180910390fd5b6108558282610b50565b5050565b6003805461086690610f7b565b80601f016020809104026020016040519081016040528092919081815260200182805461089290610f7b565b80156108df5780601f106108b4576101008083540402835291602001916108df565b820191906000526020600020905b8154815290600101906020018083116108c257829003601f168201915b505050505081565b81600660003373ffffffffffffffffffffffffffffffffffffffff1673ffffffffffffffffffffffffffffffffffffffff168152602001908152602001600020541015610969576040517f08c379a0000000000000000000000000000000000000000000000000000000008152600401610960906110f6565b60405180910390fd5b81600660003373ffffffffffffffffffffffffffffffffffffffff1673ffffffffffffffffffffffffffffffffffffffff16815260200190815260200160002060008282546109b89190611145565b9250508190555081600660008373ffffffffffffffffffffffffffffffffffffffff1673ffffffffffffffffffffffffffffffffffffffff1681526020019081526020016000206000828254610a0e9190611179565b925050819055508073ffffffffffffffffffffffffffffffffffffffff163373ffffffffffffffffffffffffffffffffffffffff167fddf252ad1be2c89b69c2b068fc378daa952ba7f163c4a11628f55a4df523b3ef84604051610a729190610de3565b60405180910390a35050565b60008054906101000a900473ffffffffffffffffffffffffffffffffffffffff1673ffffffffffffffffffffffffffffffffffffffff163373ffffffffffffffffffffffffffffffffffffffff1614610b0c576040517f08c379a0000000000000000000000000000000000000000000000000000000008152600401610b039061128b565b60405180910390fd5b80600160006101000a81548173ffffffffffffffffffffffffffffffffffffffff021916908373ffffffffffffffffffffffffffffffffffffffff16021790555050565b8160056000828254610b629190611179565b9250508190555081600660008373ffffffffffffffffffffffffffffffffffffffff1673ffffffffffffffffffffffffffffffffffffffff1681526020019081526020016000206000828254610bb89190611179565b9250508190555060008054906101000a900473ffffffffffffffffffffffffffffffffffffffff1673ffffffffffffffffffffffffffffffffffffffff16600073ffffffffffffffffffffffffffffffffffffffff167fddf252ad1be2c89b69c2b068fc378daa952ba7f163c4a11628f55a4df523b3ef84604051610c3d9190610de3565b60405180910390a35050565b600081519050919050565b600082825260208201905092915050565b60005b83811015610c83578082015181840152602081019050610c68565b60008484015250505050565b6000601f19601f8301169050919050565b6000610cab82610c49565b610cb58185610c54565b9350610cc5818560208601610c65565b610cce81610c8f565b840191505092915050565b60006020820190508181036000830152610cf38184610ca0565b905092915050565b600080fd5b600073ffffffffffffffffffffffffffffffffffffffff82169050919050565b6000610d2b82610d00565b9050919050565b610d3b81610d20565b8114610d4657600080fd5b50565b600081359050610d5881610d32565b92915050565b6000819050919050565b610d7181610d5e565b8114610d7c57600080fd5b50565b600081359050610d8e81610d68565b92915050565b60008060408385031215610dab57610daa610cfb565b5b6000610db985828601610d49565b9250506020610dca85828601610d7f565b9150509250929050565b610ddd81610d5e565b82525050565b6000602082019050610df86000830184610dd4565b92915050565b600080600060608486031215610e1757610e16610cfb565b5b6000610e2586828701610d49565b9350506020610e3686828701610d49565b9250506040610e4786828701610d7f565b9150509250925092565b600060ff82169050919050565b610e6781610e51565b82525050565b6000602082019050610e826000830184610e5e565b92915050565b610e9181610d20565b82525050565b6000602082019050610eac6000830184610e88565b92915050565b600060208284031215610ec857610ec7610cfb565b5b6000610ed684828501610d7f565b91505092915050565b600060208284031215610ef557610ef4610cfb565b5b6000610f0384828501610d49565b91505092915050565b60008060408385031215610f2357610f22610cfb565b5b6000610f3185828601610d7f565b9250506020610f4285828601610d49565b9150509250929050565b7f4e487b7100000000000000000000000000000000000000000000000000000000600052602260045260246000fd5b60006002820490506001821680610f9357607f821691505b602082108103610fa657610fa5610f4c565b5b50919050565b7f696e73756666696369656e742062616c616e636520666f7220617070726f766160008201527f6c00000000000000000000000000000000000000000000000000000000000000602082015250565b6000611008602183610c54565b915061101382610fac565b604082019050919050565b6000602082019050818103600083015261103781610ffb565b9050919050565b7f696e73756666696369656e7420616c6c6f77616e636500000000000000000000600082015250565b6000611074601683610c54565b915061107f8261103e565b602082019050919050565b600060208201905081810360008301526110a381611067565b9050919050565b7f696e73756666696369656e742062616c616e6365000000000000000000000000600082015250565b60006110e0601483610c54565b91506110eb826110aa565b602082019050919050565b6000602082019050818103600083015261110f816110d3565b9050919050565b7f4e487b7100000000000000000000000000000000000000000000000000000000600052601160045260246000fd5b600061115082610d5e565b915061115b83610d5e565b925082820390508181111561117357611172611116565b5b92915050565b600061118482610d5e565b915061118f83610d5e565b92508282019050808211156111a7576111a6611116565b5b92915050565b7f596f7520617265206e6f7420617574686f72697a656420746f206d616e61676560008201527f207468697320636f6e7472616374000000000000000000000000000000000000602082015250565b6000611209602e83610c54565b9150611214826111ad565b604082019050919050565b60006020820190508181036000830152611238816111fc565b9050919050565b7f596f7520617265206e6f7420617574686f72697a656400000000000000000000600082015250565b6000611275601683610c54565b91506112808261123f565b602082019050919050565b600060208201905081810360008301526112a481611268565b905091905056fea2646970667358221220703c34855a7262ebafb17f7ee89f190e62ff3523a13cd03367462b12c34a2c9964736f6c634300081c0033",
  "linkReferences": {},
  "deployedLinkReferences": {}
}